:020000040000FA
:04000000C9EF7FF0D5
:10FF92000001D6EF7FF0300ED36E000E9B6E120082
:10FFA200E8EC7FF0CCEC7FF01200D1EC7FF0821E07
:10FFB200030E026E8A0E016E560EE82EFED7012E39
:10FFC200FCD7022EFAD7D8EF7FF000EF00F0000E38
:10FFD2008D6E000E8C6E000E896E000E8A6E000E03
:10FFE2008B6E070E966E92689368000E946E9568FB
:0EFFF2007E681F0E7F6E000E7C6EF18E120078
:020000040020DA
:08000000FFFFFFFFFFFFFFFF00
:020000040030CA
:0E000000FF021F1EFF8B85FF0FC00FE00F4099
:00000001FF
