:020000040000FA
:0400000033EF00F0EA
:06000800128259EF00F026
:100018001280D8CF05F0E8CF06F0E0CF07F0FACF8E
:1000280008F0FBCF09F0F0A61CEF00F01EEF00F07F
:1000380027EF00F0F0A023EF00F025EF00F027EF06
:1000480000F010EC01F009C0FBFF08C0FAFF07C080
:10005800E0FF06C0E8FF05C0D8FF12901000FAEFD5
:1000680000F0F1EC00F0F28EF28CF28C82B03FEFEF
:1000780000F042EF00F0010E43EF00F0000EFF0A1F
:100088000C6E82500C18FE0B0C18826E030E0D6E4F
:100098008A0E0C6E560EE82EFED70C2EFCD70D2EAF
:1000A800FAD73AEF00F033EF00F0FACF02F0FBCFC7
:1000B80003F0F2A862EF00F064EF00F06DEF00F0DB
:1000C800F2A269EF00F06BEF00F06DEF00F014ECB6
:1000D80001F003C0FBFF02C0FAFF12921100000EEC
:1000E8008D6E000E8C6E000E896E000E8A6E000EEC
:1000F8008B6E070E966E92689368F80E946E9568EC
:100108007E680B0E7F6E000E7C6EF18E12000E5014
:100118000F10D8B492EF00F094EF00F0A1EF00F0C8
:1001280002D8A1EF00F00500FA6E0E50FD6E0F50D8
:10013800FE6EF850FF6EFA501200120010501110A7
:10014800D8B4A9EF00F0ABEF00F0B8EF00F002D898
:10015800B8EF00F00500FA6E1050FD6E1150FE6EFB
:10016800F850FF6EFA5012001200F292F18CBE0E97
:100178000A6E010E0B6E0BEC01F0F288F090F18A1A
:10018800980E0A6E010E0B6E06EC01F0F086120056
:1001980082B4D1EF00F0D4EF00F0010ED5EF00F0FB
:1001A800000EFF0A046E0446044682500418FB0B36
:1001B8000418826E120082B2E4EF00F0E7EF00F05C
:1001C800010EE8EF00F0000EFF0A016E01468250B2
:1001D8000118FD0B0118826E120018EC01F073EC87
:1001E80000F001EC01F0B9EC00F01200129012924C
:1001F800000EF86E000135EF00F0300ED36E000EE1
:100208009B6E12000AC00EF00BC00FF012000AC05D
:1002180010F00BC011F01200F0908BEC00F01200FF
:0E022800F292A2EC00F01200D08EF09C1200B8
:020000040020DA
:08000000FFFFFFFFFFFFFFFF00
:020000040030CA
:0E000000FF021F1EFF8B85FF0FC00FE00F4099
:00000001FF
