:020000040000FA
:0400000033EF00F0EA
:060008001182CBEF1FF096
:100018001180D8CF05F0E8CF06F0E0CF07F0FACF8F
:1000280008F0FBCF09F0F0A61CEF00F01EEF00F07F
:1000380027EF00F0F0A023EF00F025EF00F027EF06
:1000480000F02AEC1FF009C0FBFF08C0FAFF07C048
:10005800E0FF06C0E8FF05C0D8FF119010003DEF93
:020068001FF087
:103E4600D08EF09C1200F29285EC1FF01200F090DA
:103E56009CEC1FF012000AC00FF00BC010F012000D
:103E66000AC00DF00BC00EF01200300ED36E000E1D
:103E76009B6E120011901192000EF86E0001E5EF94
:103E86001FF023EC1FF0B3EC1FF038EC1FF072ECC0
:103E96001FF0120082B252EF1FF055EF1FF0010E15
:103EA60056EF1FF0000EFF0A016E01468250011800
:103EB600FD0B0118826E120082B464EF1FF067EFEB
:103EC6001FF0010E68EF1FF0000EFF0A046E044695
:103ED600044682500418FB0B0418826E1200F292FC
:103EE600F18C9A0E0A6E3E0E0B6E2EEC1FF0F288C7
:103EF600F090F18ABE0E0A6E3E0E0B6E33EC1FF08A
:103F0600F08612000F501010D8B48CEF1FF08EEF11
:103F16001FF09BEF1FF002D89BEF1FF00500FA6E13
:103F26000F50FD6E1050FE6EF850FF6EFA501200E4
:103F360012000D500E10D8B4A3EF1FF0A5EF1FF01E
:103F4600B2EF1FF002D8B2EF1FF00500FA6E0D5067
:103F5600FD6E0E50FE6EF850FF6EFA501200120003
:103F6600000E8D6E000E8C6E000E896E000E8A6E2F
:103F7600000E8B6E070E966E92689368F80E946E1E
:103F860095687E680B0E7F6E000E7C6EF18E1200B9
:103F9600FACF02F0FBCF03F0F2A8D4EF1FF0D6EF72
:103FA6001FF0DFEF1FF0F2A2DBEF1FF0DDEF1FF0D7
:103FB600DFEF1FF026EC1FF003C0FBFF02C0FAFF85
:103FC6001192110044EC1FF0F28EF28CF28C82B04A
:103FD600EFEF1FF0F2EF1FF0010EF3EF1FF0000EF0
:103FE600FF0A0C6E82500C18FE0B0C18826E00F045
:0A3FF60000F0EAEF1FF033EF00F0D7
:020000040020DA
:08000000FFFFFFFFFFFFFFFF00
:020000040030CA
:0E000000FF021F1EFF8B85FF0FC00FE00F4099
:00000001FF
