:020000040000FA
:04000000A8EF7FF0F6
:10FF3000300ED36E000E9B6E1200BDEC7FF098EC7D
:10FF40007FF012009DEC7FF0A4EF7FF000EF00F057
:10FF5000AA0EF66EFF0EF76E000EF86E00EE01F0C0
:10FF600010EE56F00900F5CFEEFFE550E150FAE152
:10FF7000000EF86E0001A2EF7FF0000E8D6E000EF5
:10FF80008C6E000E896E000E8A6E000E8B6E070E50
:10FF9000966E92689368000E946E95687E681F0E48
:10FFA0007F6E000E7C6EF18E1200010000000000DA
:10FFB0000001010100000000010101010100000138
:10FFC0000101010101010101010102000002010022
:10FFD0000202000203000204000205000206000201
:10FFE0000700890F8A0F8B0F8C0F8D0F920F930FC5
:10FFF000940F950F960F800F810F820F830F840F40
:020000040020DA
:08000000FFFFFFFFFFFFFFFF00
:020000040030CA
:0E000000FF021F1EFF8B85FF0FC00FE00F4099
:00000001FF
