:020000040000FA
:040000009EEF7FF000
:10FF1400300ED36E000E9B6E1200C7EC7FF08AEC9D
:10FF24007FF01200C0F9A4B0999283F88090C0F9D0
:10FF3400A4B0999283F88090280EF66EFF0EF76EA7
:10FF4400000EF86E00EE01F010EE14F00900F5CF8B
:10FF5400EEFFE550E150FAE10001DFEF7FF0166EAD
:10FF6400090E1664B8EF7FF0BAEF7FF0BDEF7FF0B3
:10FF7400000EC6EF7FF00B0E1624D96EDA6A000E5F
:10FF8400DA22DF50826E010E1200000E8D6E000E1A
:10FF94008C6E000E896E000E8A6E000E8B6E070E3C
:10FFA400966E92689368000E946E95687E681F0E34
:10FFB4007F6E000E7C6EF18E12008FEC7FF0000ECF
:10FFC400196E090E1964E9EF7FF0EBEF7FF0EDEFA6
:10FFD4007FF0E1EF7FF01950B1EC7FF0060E186E60
:10FFE400130E176EAE0EE82EFED7172EFCD7182E62
:0CFFF400FAD7192AE3EF7FF000EF00F0CD
:020000040020DA
:08000000FFFFFFFFFFFFFFFF00
:020000040030CA
:0E000000FF021F1EFF8B85FF0FC00FE00F4099
:00000001FF
