:020000040000FA
:040000001FEF00F0FE
:100008000D82FACF08F0FBCF09F0F2A80EEF00F04E
:1000180010EF00F019EF00F0F2A215EF00F017EF63
:1000280000F019EF00F0A9EC00F009C0FBFF08C0D0
:10003800FAFF0D92110098EF00F08FEC00F0E60E39
:10004800036E000E046E420E016E000E026EF28EFA
:10005800F28CF28C82B033EF00F036EF00F0010E34
:1000680037EF00F0000EFF0A0C6E82500C18FE0BE2
:100078000C18826E00F000F02EEF00F01FEF00F079
:10008800000E8D6E000E8C6E000E896E000E8A6E4C
:10009800000E8B6E070E966E92689368F80E946E3B
:1000A80095687E680F0E7F6E000E7C6EF18E1200D2
:1000B80005500610D8B463EF00F065EF00F072EF5A
:1000C80000F002D872EF00F00500FA6E0550FD6EE0
:1000D8000650FE6EF850FF6EFA501200120082B2FF
:1000E80078EF00F07BEF00F0010E7CEF00F0000EDF
:1000F800FF0A076E074682500718FD0B0718826E25
:100108001200F292F18CE60E0A6E000E0B6EA4EC51
:1001180000F0F2881200ADEC00F044EC00F09FEC27
:1001280000F085EC00F012000D900D92000EF86EB4
:10013800000121EF00F0300ED36E000E9B6E12000E
:100148000AC005F00BC006F01200F2925CEC00F059
:060158001200D08E12001F
:020000040020DA
:08000000FFFFFFFFFFFFFFFF00
:020000040030CA
:0E000000FF021F1EFF8B85FF0FC00FE00F4099
:00000001FF
