:020000040000FA
:0400000087EF7FF017
:10FEFA00300ED36E000E9B6E120098EC7FF07DECF4
:10FF0A007FF01200086A076A0001D2EF7FF0025000
:10FF1A00030BAA6E01C0A9FFA69CA69EA68000F0AC
:10FF2A0000F0A8501200000E8D6E000E8C6E000EAE
:10FF3A00896E000E8A6E000E8B6E070E966E9268A0
:10FF4A009368000E946E95687E681F0E7F6E000E91
:10FF5A007C6EF18E1200000EF2BE010E046E02508B
:10FF6A00030BAA6E01C0A9FF03C0A8FFA69EA69C08
:10FF7A00A684F29E550EA76EAA0EA76EA682A6B2F8
:10FF8A00C9EF7FF0CBEF7FF0C4EF7FF0A69404B007
:10FF9A0002D0F29E01D0F28E120082EC7FF0000EA7
:10FFAA00026E880E016E08C003F0B0EC7FF0082ADA
:10FFBA000B0E066E260E056E5E0EE82EFED7052E79
:10FFCA00FCD7062EFAD7000E026E880E016E8CEC54
:10FFDA007FF0076E0A0E0718D8A4F6EF7FF0F8EF45
:10FFEA007FF0FBEF7FF08280D4EF7FF08290D4EF36
:06FFFA007FF000EF00F0B3
:020000040020DA
:08000000FFFFFFFFFFFFFFFF00
:020000040030CA
:0E000000FF021F1EFF8B85FF0FC00FE00F4099
:00000001FF
