:020000040000FA
:040000005FEF7DF041
:10FA6D000100000000000001010100000000010183
:10FA7D00010101000001010101010101010101016B
:10FA8D000200120022003200420052006200720099
:10FA9D00800F810F820F830F840F890F8A0F8B0FB9
:10FAAD008C0F8D0F920F930F940F950F960F0200E1
:10FABD00036D0EF66EFA0EF76E000EF86E00EE6028
:10FACD00F010EE20F00900F5CFEEFFE550E150FA11
:10FADD00E18D0EF66EFA0EF76E000EF86E00EE0169
:10FAED00F010EE31F00900F5CFEEFFE550E150FAE0
:10FAFD00E1416A000EF86E000185EF7DF02F0E3B9F
:10FB0D006E000E3C6E9EEC7EF0310E3B6E000E3C98
:10FB1D006EEDEC7DF0310E3B6E000E3C6E410E3DF8
:10FB2D006E000E3E6EEAEC7EF04104D8A4A1EF7D8E
:10FB3D00F0A3EF7DF0ABEF7DF02F0E3B6E000E3C92
:10FB4D006E63EC7EF091EF7DF02F0E3B6E000E3C60
:10FB5D006E28EC7EF091EF7DF000EF00F03A6E082C
:10FB6D000E3260BCEF7DF0BEEF7DF0ECEF7DF0333B
:10FB7D00503410D8A4C5EF7DF0C7EF7DF0C9EF7DEF
:10FB8D00F0ECEF7DF032C035F03A50020D110EF36E
:10FB9D0024D96E000EF420DA6EDECF36F0DDCF37CD
:10FBAD00F036C0D9FF37C0DAFFDF50386E352AE2A4
:10FBBD00EF7DF0D8903832352EE0EF7DF0385001E2
:10FBCD000B33C0D9FF34C0DAFFDF6E12003B503C5F
:10FBDD0010D8B4F4EF7DF0F6EF7DF027EF7EF03B1B
:10FBED00C0D9FF3CC0DAFFDF500F0B3D6E050E3D57
:10FBFD006003EF7EF005EF7EF027EF7EF03BC0D97E
:10FC0D00FF3CC0DAFFDF38070B3D6E070E3D641277
:10FC1D00EF7EF014EF7EF016EF7EF027EF7EF03BD7
:10FC2D00C0D9FF3CC0DAFFDF38070B326E010E334F
:10FC3D006E3BC0D9FF3CC0DAFFDF500F0B38EC7FB5
:10FC4D00F012003B503C10D8B42FEF7EF031EF7E18
:10FC5D00F062EF7EF03BC0D9FF3CC0DAFFDF500F02
:10FC6D000B3D6E050E3D603EEF7EF040EF7EF06287
:10FC7D00EF7EF03BC0D9FF3CC0DAFFDF380F0B3D04
:10FC8D006E070E3D644DEF7EF04FEF7EF051EF7E2F
:10FC9D00F062EF7EF03BC0D9FF3CC0DAFFDF380FDA
:10FCAD000B326E000E336E3BC0D9FF3CC0DAFFDF66
:10FCBD00500F0B9CEC7FF012003B503C10D8B46AF7
:10FCCD00EF7EF06CEF7EF09DEF7EF03BC0D9FF3CF8
:10FCDD00C0DAFFDF500F0B3D6E050E3D6079EF7EF4
:10FCED00F07BEF7EF09DEF7EF03BC0D9FF3CC0DA9C
:10FCFD00FFDF380F0B3D6E070E3D6488EF7EF08AF7
:10FD0D00EF7EF08CEF7EF09DEF7EF03BC0D9FF3C97
:10FD1D00C0DAFFDF380F0B326E010E336E3BC0D9E8
:10FD2D00FF3CC0DAFFDF500F0B9CEC7FF012003B65
:10FD3D00503C10D8B4A5EF7EF0A7EF7EF0E9EF7E32
:10FD4D00F03BC0D9FF3CC0DAFFDF500F0B3D6E0515
:10FD5D000E3D60B4EF7EF0B6EF7EF0E9EF7EF03B46
:10FD6D00C0D9FF3CC0DAFFDF380F0B3D6E070E3DEB
:10FD7D0064C3EF7EF0C5EF7EF0C7EF7EF0E9EF7E56
:10FD8D00F03BC0D9FF3CC0DAFFDF380F0B326E00FD
:10FD9D000E336E3BC0D9FF3CC0DAFFDF500F0B387E
:10FDAD00EC7FF03BC0D9FF3CC0DAFFDF380F0B32E0
:10FDBD006E000E336E3BC0D9FF3CC0DAFFDF500F33
:10FDCD000B9CEC7FF012003B503C10D8B4F1EF7E51
:10FDDD00F0F3EF7EF037EF7FF03BC0D9FF3CC0DA98
:10FDED00FFDF500F0B3F6E050E3F6000EF7FF002FF
:10FDFD00EF7FF037EF7FF03BC0D9FF3CC0DAFFDF7C
:10FE0D0038070B3F6E070E3F640FEF7FF011EF7F4A
:10FE1D00F013EF7FF037EF7FF03BC0D9FF3CC0DA36
:10FE2D00FFDF38070B326E3DC033F03EC034F03B80
:10FE3D00C0D9FF3CC0DAFFDF500F0BB5EC7DF03DB4
:10FE4D00C0D9FF3EC0DAFFDF503F6E3BC0D9FF3C4B
:10FE5D00C0DAFF3F323F32DF503F187F0B3F18DFD4
:10FE6D006E12003A6E080E32603FEF7FF041EF7F69
:10FE7D00F09BEF7FF086EF7FF032C034F0010E354E
:10FE8D006E342A4CEF7FF0D8903536342E4AEF7F02
:10FE9D00F03550FF0A366E3A50020D250EF324D977
:10FEAD006E000EF420DA6EDECF37F0DDCF38F0378E
:10FEBD00C0D9FF38C0DAFF3650DF169BEF7FF03226
:10FECD00C034F0010E356E342A6FEF7FF0D89035C7
:10FEDD0036342E6DEF7FF03A50020D250EF324D9F6
:10FEED006E000EF420DA6EDECF36F0DDCF37F03651
:10FEFD00C0D9FF37C0DAFF3550DF129BEF7FF033EB
:10FF0D0050346E356A3550000AD8B490EF7FF09BAF
:10FF1D00EF7FF03450000AD8B443EF7FF0010AD8D8
:10FF2D00B466EF7FF09BEF7FF012003A6E080E3251
:10FF3D0060A3EF7FF0A5EF7FF0FFEF7FF0EAEF7F9B
:10FF4D00F032C034F0010E356E342AB0EF7FF0D8A8
:10FF5D00903536342EAEEF7FF03550FF0A366E3ABF
:10FF6D0050020D1B0EF324D96E000EF420DA6EDE56
:10FF7D00CF37F0DDCF38F037C0D9FF38C0DAFF36D4
:10FF8D0050DF16FFEF7FF032C034F0010E356E34C6
:10FF9D002AD3EF7FF0D8903536342ED1EF7FF03A5B
:10FFAD0050020D1B0EF324D96E000EF420DA6EDE16
:10FFBD00CF36F0DDCF37F036C0D9FF37C0DAFF3599
:10FFCD0050DF12FFEF7FF03350346E356A3550003D
:10FFDD000AD8B4F4EF7FF0FFEF7FF03450000AD869
:10FFED00B4A7EF7FF0010AD8B4CAEF7FF0FFEF7F1F
:03FFFD00F01200FF
:020000040020DA
:08000000FFFFFFFFFFFFFFFF00
:020000040030CA
:0E000000FF021F1EFF8985FF0FC00FE00F409B
:00000001FF
