:020000040000FA
:04000000DCEF0CF035
:10100000000E0A1F1F1F1F1F000E0A111F1F1F1F88
:10101000000E0A11111F1F1F000E0A1111111F1FB0
:10102000000E0A111111111F001F030D11011F00E5
:10103000001F181611101F00001E1E1E1E1E1E1E51
:10104000001C1C1C1C1C1C1C001818181818181834
:10105000001F150E040404040006150D060D1506E8
:10106000000E0E1F1F1F1F1F004553204469706C88
:101070006F6D610033206D65737361676573007216
:1010800065636569766564002020202000526561F3
:1010900064002569000002EC0DF0480E1D6E000E84
:1010A0001E6E040E1F6E140E206E610E216E100E49
:1010B000226E000E236E2FEC0BF0480E1D6E000EFC
:1010C0001E6E010E1F6E130E206E590E216E100E35
:1010D000226E010E236E2FEC0BF0480E1D6E000EDB
:1010E0001E6E040E1F6E010E206E510E216E100E2C
:1010F000226E020E236E2FEC0BF0480E1D6E000EBA
:101100001E6E030E1F6E010E206E490E216E100E14
:10111000226E030E236E2FEC0BF0480E1D6E000E98
:101120001E6E030E1F6E140E206E490E216E100EE1
:10113000226E030E236E2FEC0BF0480E1D6E000E78
:101140001E6E020E1F6E010E206E410E216E100EDD
:10115000226E040E236E2FEC0BF0480E1D6E000E57
:101160001E6E020E1F6E140E206E410E216E100EAA
:10117000226E040E236E2FEC0BF0480E1D6E000E37
:101180001E6E010E1F6E140E206E390E216E100E93
:10119000226E040E236E2FEC0BF0480E1D6E000E17
:1011A0001E6E010E1F6E020E206E310E216E100E8D
:1011B000226E050E236E2FEC0BF0480E1D6E000EF6
:1011C0001E6E010E1F6E030E206E290E216E100E74
:1011D000226E060E236E2FEC0BF0480E176E000EDB
:1011E000186E020E196E020E1A6E740E1B6E100E21
:1011F0001C6EC3EC0BF0480E176E000E186E030E3B
:10120000196E050E1A6E7F0E1B6E100E1C6EC3EC4F
:101210000BF0480E176E000E186E040E196E090EB4
:101220001A6E8D0E1B6E100E1C6EC3EC0BF0480E6A
:10123000176E000E186E010E196E060E1A6E690EEC
:101240001B6E100E1C6EC3EC0BF0480E176E000EDA
:10125000186E040E196E090E1A6E8D0E1B6E100E8E
:101260001C6EC3EC0BF0030E296E8A0E286E560E10
:10127000E82EFED7282EFCD7292EFAD7480E176E57
:10128000000E186E040E196E090E1A6E880E1B6E73
:10129000100E1C6EC3EC0BF0030E296E8A0E286E26
:1012A000560EE82EFED7282EFCD7292EFAD717EF98
:1012B00009F000EF00F0000E016E11C0D9FF12C05E
:1012C000DAFFDF500F0B7AEC0BF0000E016E11C04D
:1012D000D9FF12C0DAFFDF500F0BBEEC0CF020EE8E
:1012E00001F01150D9261250DA22DF38070B016EB7
:1012F000000E026E11C0D9FF12C0DAFFDF380F0BEB
:101300007EEC0AF020EE01F01150D9261250DA22BC
:10131000DF38070B016E000E026E11C0D9FF12C03C
:10132000DAFFDF380F0B1AEC0AF020EE02F0115052
:10133000D9261250DA22DF50070B016E000E026E22
:1013400020EE01F01150D9261250DA22DF500F0B97
:101350007EEC0AF020EE02F01150D9261250DA226B
:10136000DF50070B016E000E026E20EE01F01150EF
:10137000D9261250DA22DF500F0B1AEC0AF0340E85
:10138000136EF20EE82EFED7132EFCD711C00CF010
:1013900012C00DF0380E0E6E04EC0CF0070E136E3A
:1013A0007D0EE82EFED7132EFCD700F011C00CF0F6
:1013B00012C00DF0380E0E6E04EC0CF0640EE82E28
:1013C000FED711C00CF012C00DF0380E0E6E04ECFA
:1013D0000CF011C00CF012C00DF0010E0E6E04ECFA
:1013E0000CF011C00CF012C00DF0020E0E6E04ECE9
:1013F0000CF011C00CF012C00DF0060E0E6E04ECD5
:101400000CF011C00CF012C00DF00C0E0E6E04ECBE
:101410000CF011C00CF012C00DF0380E0E6E04EC82
:101420000CF011C00CF012C00DF0800E0E6E04EC2A
:101430000CF01200096E080E016021EF0AF023EF94
:101440000AF07DEF0AF068EF0AF001C003F0010E28
:10145000046E032A2EEF0AF0D8900436032E2CEFE8
:101460000AF00450FF0A056E0950020D340EF324F1
:10147000D96E000EF420DA6EDECF06F0DDCF07F075
:1014800006C0D9FF07C0DAFF0550DF167DEF0AF06E
:1014900001C003F0010E046E032A51EF0AF0D89048
:1014A0000436032E4FEF0AF00950020D340EF324D8
:1014B000D96E000EF420DA6EDECF05F0DDCF06F037
:1014C00005C0D9FF06C0DAFF0450DF127DEF0AF035
:1014D0000250036E046A0450000AD8B472EF0AF096
:1014E0007DEF0AF00350000AD8B425EF0AF0010A94
:1014F000D8B448EF0AF07DEF0AF01200096E080E2A
:10150000016085EF0AF087EF0AF0E1EF0AF0CCEF17
:101510000AF001C003F0010E046E032A92EF0AF0F4
:10152000D8900436032E90EF0AF00450FF0A056E9F
:101530000950020D3E0EF324D96E000EF420DA6E2F
:10154000DECF06F0DDCF07F006C0D9FF07C0DAFF17
:101550000550DF16E1EF0AF001C003F0010E046E42
:10156000032AB5EF0AF0D8900436032EB3EF0AF041
:101570000950020D3E0EF324D96E000EF420DA6EEF
:10158000DECF05F0DDCF06F005C0D9FF06C0DAFFDB
:101590000450DF12E1EF0AF00250036E046A0450B7
:1015A000000AD8B4D6EF0AF0E1EF0AF00350000ABF
:1015B000D8B489EF0AF0010AD8B4ACEF0AF0E1EF31
:1015C0000AF01200140611EF0BF011C00CF012C05B
:1015D0000DF01450800F0E6E04EC0CF02EEF0BF09B
:1015E00011C00CF012C00DF01450C00F0E6E04ECC0
:1015F0000CF02EEF0BF011C00CF012C00DF01450D7
:10160000940F0E6E04EC0CF02EEF0BF011C00CF0EA
:1016100012C00DF01450D40F0E6E04EC0CF02EEF2F
:101620000BF01350156E166A1650000AD8B41BEF53
:101630000BF02EEF0BF01550010AD8B4E5EF0AF0CD
:10164000030AD8B4F0EF0AF0010AD8B4FBEF0AF0AD
:10165000070AD8B406EF0BF02EEF0BF01200000EC5
:10166000276E1D501E10D8A438EF0BF03AEF0BF088
:101670003CEF0BF079EF0BF01DC00CF01EC00DF02D
:101680002350080DF350400F0E6E04EC0CF0000ECA
:10169000276E1DC00CF01EC00DF027502124246EB3
:1016A000000E2220256E24C0F6FF25C0F7FF08009B
:1016B000F5CF0EF03CEC0CF0272A070E276463EF01
:1016C0000BF065EF0BF049EF0BF01DC00CF01EC0E6
:1016D0000DF0020E0E6E04EC0CF01DC017F01EC0D3
:1016E00018F01FC019F020C01AF023C01BF098ECAE
:1016F0000CF01200056E040E056481EF0BF083EF11
:101700000BF0ADEF0BF0C2EF0BF00550020D3E0EEB
:10171000F324D96E000EF420DA6EDECF02F0DDCFB6
:1017200003F002C0D9FF03C0DAFF000EDF6EC2EF84
:101730000BF00550020D3E0EF324D96E000EF4207E
:10174000DA6EDECF02F0DDCF03F002C0D9FF03C0B6
:10175000DAFFFF0EDF6EC2EF0BF00150026E036A7C
:101760000350000AD8B4B7EF0BF0C2EF0BF00250F1
:10177000000AD8B485EF0BF0010AD8B499EF0BF04A
:10178000C2EF0BF0120017501810D8A4CAEF0BF0DC
:10179000CCEF0BF0CEEF0BF003EF0CF017C00CF01A
:1017A00018C00DF0020E0E6E04EC0CF017C011F014
:1017B00018C012F019C013F01AC014F0E2EC0AF0CD
:1017C000F5EF0BF017C00CF018C00DF01BC0F6FFC2
:1017D0001CC0F7FF0800F5CF0EF03CEC0CF01B4AE4
:1017E0001C2AC80E00D0E82EFDD71BC0F6FF1CC077
:1017F000F7FF0800F5500009D8A401EF0CF003EF43
:101800000CF0E2EF0BF012000C500D10D8A40BEF0F
:101810000CF00DEF0CF00FEF0CF03BEF0CF020EEA6
:1018200002F00C50D9260D50DA22DF50070B016E62
:10183000000E026E20EE01F00C50D9260D50DA2277
:10184000DF500F0B1AEC0AF00EC001F00CC0D9FFEC
:101850000DC0DAFFDF500F0BBEEC0CF00CC00AF02D
:101860000DC00BF06DEC0CF0030E0F6E980EE82E11
:10187000FED70F2EFCD712000C500D10D8A443EF4A
:101880000CF045EF0CF047EF0CF06CEF0CF020EE95
:1018900002F00C50D9260D50DA22DF50070B016EF2
:1018A000010E026E20EE01F00C50D9260D50DA2206
:1018B000DF500F0B1AEC0AF00EC001F00CC0D9FF7C
:1018C0000DC0DAFFDF500F0BBEEC0CF00CC00AF0BD
:1018D0000DC00BF06DEC0CF0120020EE01F00A5080
:1018E000D9260B50DA22DF38070B016E010E026E8B
:1018F0000AC0D9FF0BC0DAFFDF380F0B1AEC0AF071
:10190000420EE82EFED700D020EE01F00A50D92674
:101910000B50DA22DF38070B016E000E026E0AC090
:10192000D9FF0BC0DAFFDF380F0B1AEC0AF01200F8
:1019300017501810D8A49FEF0CF0A1EF0CF0A3EFF4
:101940000CF0BDEF0CF017C00CF018C00DF0020E3B
:101950000E6E04EC0CF017C011F018C012F019C094
:1019600013F01AC014F0E2EC0AF017C00CF018C023
:101970000DF01BC00EF03CEC0CF01200056E040ED6
:101980000564C5EF0CF0C7EF0CF0C9EF0CF0DBEF0E
:101990000CF00550020D340EF324D96E000EF42025
:1019A000DA6EDECF02F0DDCF03F002C0D9FF03C054
:1019B000DAFF01C0DFFF1200E20EF66E190EF76EBD
:1019C000000EF86E00EE2AF010EE22F00900F5CFBE
:1019D000EEFFE550E150FAE1000EF86E00014BEF2A
:1019E00008F0800F810F820F830F840F890F8A0FF9
:1019F0008B0F8C0F8D0F920F930F940F950F960FE7
:101A000032130000480E146E000E156E09EC0DF036
:101A1000120014C011F015C012F05BEC09F01200B6
:020000040020DA
:08000000FFFFFFFFFFFFFFFF00
:020000040030CA
:0E000000FF02091EFF8381FF0FC00FE00F40BB
:00000001FF
