:020000040000FA
:04000000F7EF08F01E
:0510000000256900005D
:101006004B6E040E4B640AEF08F00CEF08F036EF57
:1010160008F04BEF08F04B50020D390EF324D96E51
:10102600000EF420DA6EDECF48F0DDCF49F048C07E
:10103600D9FF49C0DAFF000EDF6E4BEF08F04B50C8
:10104600020D390EF324D96E000EF420DA6EDECFCF
:1010560048F0DDCF49F048C0D9FF49C0DAFFFF0E9E
:10106600DF6E4BEF08F04750486E496A4950000A58
:10107600D8B440EF08F04BEF08F04850000AD8B457
:101086000EEF08F0010AD8B422EF08F04BEF08F093
:101096001200980E516E100E526E1FEC09F0000EE3
:1010A600536E430E4C6E000E4D6E53C04EF087ECE1
:1010B60008F0000E546E450E4C6E000E4D6E54C078
:1010C6004EF087EC08F0030E506E8A0E4F6E560EE9
:1010D600E82EFED74F2EFCD7502EFAD7542A090EEB
:1010E600546478EF08F07AEF08F05EEF08F0532AC0
:1010F600090E536481EF08F083EF08F054EF08F00F
:1011060052EF08F000EF00F020EE01F04C50D92627
:101116004D50DA22DF50D8A493EF08F095EF08F08F
:10112600A6EF08F01B0E4E24D96EDA6A000EDA22FC
:10113600DF50476E4CC0D9FF4DC0DAFFDF50D9EC07
:1011460008F0B5EF08F0110E4E24D96EDA6A000EDB
:10115600DA22DF50476E4CC0D9FF4DC0DAFFDF50B0
:10116600D9EC08F012003738392F3435362A3132A7
:10117600332D2A303D2B3F065B4F666D7D077F6F13
:10118600C0F9A4B0999282F88090800F810F820FE7
:10119600830F840F890F8A0F8B0F8C0F8D0F920F81
:1011A600930F940F950F960F030002004B6E040EDB
:1011B6004B64E0EF08F0E2EF08F0E4EF08F0F6EF3A
:1011C60008F04B50020D2F0EF324D96E000EF420BA
:1011D600DA6EDECF48F0DDCF49F048C0D9FF49C00E
:1011E600DAFF47C0DFFF12006C0EF66E110EF76EC7
:1011F600000EF86E00EE01F010EE46F00900F5CF95
:10120600EEFFE550E150FAE1546A536A00014CEFF3
:1012160008F0000E476E4CC0D9FF4DC0DAFFDF5014
:1012260003EC08F0000E476E4CC0D9FF4DC0DAFF44
:10123600DF50D9EC08F01200450E4C6E000E4D6ED4
:101246000CEC09F0430E4C6E000E4D6E0CEC09F0E2
:02125600120084
:020000040020DA
:08000000FFFFFFFFFFFFFFFF00
:020000040030CA
:0E000000FF02091EFF8381FF0FC00FE00F40BB
:00000001FF
