:020000040000FA
:04000000CDEF7CF0D4
:10F92800210E326E000E336EFEEC7CF01F0E326E2E
:10F93800000E336EFEEC7CF01200210E326E000ECB
:10F94800336E18EC7DF01F0E326E000E336E18EC1D
:10F958007DF01200210E326E000E336E32EC7DF017
:10F968001F0E326E000E336E32EC7DF01200800FE7
:10F97800810F820F830F840F890F8A0F8B0F8C0FD3
:10F988008D0F920F930F940F950F960F223202123C
:10F998001303760EF66EF90EF76E000EF86E00EE93
:10F9A80001F010EE24F00900F5CFEEFFE550E1502C
:10F9B800FAE1366A356A000EF86E0001DEEF7EF075
:10F9C80032503310D8A4EBEF7CF0EDEF7CF0EFEF82
:10F9D8007CF0FDEF7CF032C02EF033C02FF08DECC0
:10F9E8007EF0010E32242E6E000E33202F6E8DEC29
:10F9F8007EF0120032503310D8A405EF7DF007EFE7
:10FA08007DF009EF7DF017EF7DF032C02EF033C0A6
:10FA18002FF0BFEC7DF0010E32242E6E000E332045
:10FA28002F6EFFEC7DF0120032503310D8A41FEF78
:10FA38007DF021EF7DF023EF7DF031EF7DF032C0D6
:10FA48002EF033C02FF0FFEC7DF0010E32242E6E25
:10FA5800000E33202F6EBFEC7DF0120032503310B1
:10FA6800D8A439EF7DF03BEF7DF03DEF7DF04BEF13
:10FA78007DF032C02EF033C02FF0BFEC7DF0010EC8
:10FA880032242E6E000E33202F6EBFEC7DF0120054
:10FA98002D6E080E256053EF7DF055EF7DF083EF56
:10FAA8007DF026502710D8A45CEF7DF05EEF7DF046
:10FAB80060EF7DF083EF7DF025C028F02D50020D1A
:10FAC800010EF324D96E000EF420DA6EDECF29F091
:10FAD800DDCF2AF029C0D9FF2AC0DAFFDF502B6E0C
:10FAE800282A79EF7DF0D8902B32282E77EF7DF0F9
:10FAF8002B50010B26C0D9FF27C0DAFFDF6E12009A
:10FB08002E502F10D8B48BEF7DF08DEF7DF0BEEF27
:10FB18007DF02EC0D9FF2FC0DAFFDF500F0B306EFB
:10FB2800050E30609AEF7DF09CEF7DF0BEEF7DF022
:10FB38002EC0D9FF2FC0DAFFDF38070B306E070E53
:10FB48003064A9EF7DF0ABEF7DF0ADEF7DF0BEEF57
:10FB58007DF02EC0D9FF2FC0DAFFDF38070B256EE6
:10FB6800010E266E2EC0D9FF2FC0DAFFDF500F0B13
:10FB780038EC7FF012002E502F10D8B4C6EF7DF06D
:10FB8800C8EF7DF0FEEF7DF02EC0D9FF2FC0DAFF61
:10FB9800DF500F0B306E050E3060D5EF7DF0D7EFDC
:10FBA8007DF0FEEF7DF02EC0D9FF2FC0DAFFDF38E1
:10FBB800070B306E070E3064E4EF7DF0E6EF7DF062
:10FBC800E8EF7DF0FEEF7DF02EC0D9FF2FC0DAFF01
:10FBD800DF38070B256E000E266E2EC0D9FF2FC00A
:10FBE800DAFFDF500F0B9CEC7FF02EC0D9FF2FC03F
:10FBF800DAFFDF9E12002E502F10D8B406EF7EF0E9
:10FC080008EF7EF03EEF7EF02EC0D9FF2FC0DAFF5E
:10FC1800DF500F0B306E050E306015EF7EF017EFDA
:10FC28007EF03EEF7EF02EC0D9FF2FC0DAFFDF381E
:10FC3800070B306E070E306424EF7EF026EF7EF05F
:10FC480028EF7EF03EEF7EF02EC0D9FF2FC0DAFFFE
:10FC5800DF38070B256E010E266E2EC0D9FF2FC088
:10FC6800DAFFDF500F0B9CEC7FF02EC0D9FF2FC0BE
:10FC7800DAFFDF8E12002E502F10D8B446EF7EF038
:10FC880048EF7EF08CEF7EF02EC0D9FF2FC0DAFF50
:10FC9800DF500F0B326E050E326055EF7EF057EFD6
:10FCA8007EF08CEF7EF02EC0D9FF2FC0DAFFDF3850
:10FCB800070B326E070E326464EF7EF066EF7EF05B
:10FCC80068EF7EF08CEF7EF02EC0D9FF2FC0DAFFF0
:10FCD800DF38070B256E30C026F031C027F02EC064
:10FCE800D9FF2FC0DAFFDF500F0B4CEC7DF030C08E
:10FCF800D9FF31C0DAFFDF50326E2EC0D9FF2FC0D6
:10FD0800DAFF32323232DF5032187F0B3218DF6EB0
:10FD180012002E502F10D8B494EF7EF096EF7EF09C
:10FD2800DDEF7EF02EC0D9FF2FC0DAFFDF500F0BBA
:10FD3800306E050E3060A3EF7EF0A5EF7EF0DDEFAC
:10FD48007EF02EC0D9FF2FC0DAFFDF38070B306EE8
:10FD5800070E3064B2EF7EF0B4EF7EF0B6EF7EF0BF
:10FD6800DDEF7EF02EC0D9FF2FC0DAFFDF38070B9A
:10FD7800256E000E266E2EC0D9FF2FC0DAFFDF5089
:10FD88000F0B38EC7FF02EC0D9FF2FC0DAFFDF3819
:10FD9800070B256E000E266E2EC0D9FF2FC0DAFF86
:10FDA800DF500F0B9CEC7FF02EC0D9FF2FC0DAFF7D
:10FDB800DF9E1200210E326E000E336EE4EC7CF0F2
:10FDC8001F0E326E000E336EE4EC7CF0240E2E6EA5
:10FDD800000E2F6E84EC7DF0230E2E6E000E2F6E1B
:10FDE80084EC7DF0240E2E6E000E2F6E360E306ED3
:10FDF800000E316E3FEC7EF0230E2E6E000E2F6E3D
:10FE0800350E306E000E316E3FEC7EF03604D8A40D
:10FE180010EF7FF012EF7FF01EEF7FF03550D8A47F
:10FE280018EF7FF01AEF7FF01EEF7FF0A1EC7CF067
:10FE3800F6EF7EF03504D8A424EF7FF026EF7FF0AC
:10FE480032EF7FF03650D8A42CEF7FF02EEF7FF002
:10FE580032EF7FF094EC7CF0F6EF7EF0AEEC7CF0C5
:10FE6800F6EF7EF000EF00F02D6E080E25603FEFF4
:10FE78007FF041EF7FF09BEF7FF086EF7FF025C0AA
:10FE880027F0010E286E272A4CEF7FF0D8902836ED
:10FE9800272E4AEF7FF02850FF0A296E2D50020DB9
:10FEA800150EF324D96E000EF420DA6EDECF2AF098
:10FEB800DDCF2BF02AC0D9FF2BC0DAFF2950DF167F
:10FEC8009BEF7FF025C027F0010E286E272A6FEFE1
:10FED8007FF0D8902836272E6DEF7FF02D50020D39
:10FEE800150EF324D96E000EF420DA6EDECF29F059
:10FEF800DDCF2AF029C0D9FF2AC0DAFF2850DF1247
:10FF08009BEF7FF02650276E286A2850000AD8B445
:10FF180090EF7FF09BEF7FF02750000AD8B443EFB3
:10FF28007FF0010AD8B466EF7FF09BEF7FF01200F4
:10FF38002D6E080E2560A3EF7FF0A5EF7FF0FFEF91
:10FF48007FF0EAEF7FF025C027F0010E286E272A00
:10FF5800B0EF7FF0D8902836272EAEEF7FF02850EC
:10FF6800FF0A296E2D50020D0B0EF324D96E000ED8
:10FF7800F420DA6EDECF2AF0DDCF2BF02AC0D9FFCD
:10FF88002BC0DAFF2950DF16FFEF7FF025C027F0DE
:10FF9800010E286E272AD3EF7FF0D8902836272E17
:10FFA800D1EF7FF02D50020D0B0EF324D96E000E09
:10FFB800F420DA6EDECF29F0DDCF2AF029C0D9FF90
:10FFC8002AC0DAFF2850DF12FFEF7FF02650276E95
:10FFD800286A2850000AD8B4F4EF7FF0FFEF7FF0CA
:10FFE8002750000AD8B4A7EF7FF0010AD8B4CAEFA7
:08FFF8007FF0FFEF7FF0120023
:020000040020DA
:08000000FFFFFFFFFFFFFFFF00
:020000040030CA
:0E000000FF021F1EFF8385FF0FC00FE00F40A1
:00000001FF
