:020000040000FA
:04000000D0EF7EF0CF
:10FD8200800F810F820F830F840F890F8A0F8B0FD1
:10FD92008C0F8D0F920F930F940F950F960F820E6B
:10FDA200F66EFD0EF76E000EF86E00EE01F010EE2C
:10FDB2001EF00900F5CFEEFFE550E150FAE12A6AA4
:10FDC200000EF86E0001E6EF7EF0000E1F6E000ED0
:10FDD200206E020E38EC7FF0010E1F6E000E206EB8
:10FDE200020E38EC7FF0000E1F6E000E206E020E27
:10FDF2009CEC7FF0010E1F6E000E206E020E9CEC3A
:10FE02007FF0000E1F6E010E206E020E9CEC7FF042
:10FE1200010E1F6E000E206E020E9CEC7FF0030E90
:10FE2200296E8A0E286E560EE82EFED7282EFCD793
:10FE3200292EFAD7000E1F6E000E206E020E9CECC9
:10FE42007FF0010E1F6E010E206E020E9CEC7FF001
:10FE5200030E296E8A0E286E560EE82EFED7282E25
:10FE6200FCD7292EFAD702EF7FF000EF00F0276EC1
:10FE7200080E1F603FEF7FF041EF7FF09BEF7FF0B6
:10FE820086EF7FF01FC021F0010E226E212A4CEF77
:10FE92007FF0D8902236212E4AEF7FF02250FF0ABF
:10FEA200236E2750020D150EF324D96E000EF42096
:10FEB200DA6EDECF24F0DDCF25F024C0D9FF25C0D5
:10FEC200DAFF2350DF169BEF7FF01FC021F0010EF7
:10FED200226E212A6FEF7FF0D8902236212E6DEF0D
:10FEE2007FF02750020D150EF324D96E000EF42078
:10FEF200DA6EDECF23F0DDCF24F023C0D9FF24C099
:10FF0200DAFF2250DF129BEF7FF02050216E226A2F
:10FF12002250000AD8B490EF7FF09BEF7FF021507F
:10FF2200000AD8B443EF7FF0010AD8B466EF7FF03D
:10FF32009BEF7FF01200276E080E1F60A3EF7FF089
:10FF4200A5EF7FF0FFEF7FF0EAEF7FF01FC021F017
:10FF5200010E226E212AB0EF7FF0D8902236212E98
:10FF6200AEEF7FF02250FF0A236E2750020D0B0ED8
:10FF7200F324D96E000EF420DA6EDECF24F0DDCF4A
:10FF820025F024C0D9FF25C0DAFF2350DF16FFEF8A
:10FF92007FF01FC021F0010E226E212AD3EF7FF0E5
:10FFA200D8902236212ED1EF7FF02750020D0B0E72
:10FFB200F324D96E000EF420DA6EDECF23F0DDCF0B
:10FFC20024F023C0D9FF24C0DAFF2250DF12C8EF89
:10FFD2007FF02050216E226A2250000AD8B4F4EF3A
:10FFE2007FF0FFEF7FF02150000AD8B4A7EF7FF037
:0EFFF200010AD8B4CAEF7FF0FFEF7FF01200D3
:020000040020DA
:08000000FFFFFFFFFFFFFFFF00
:020000040030CA
:0E000000FF021F1EFF8985FF0FC00FE00F409B
:00000001FF
