:020000040000FA
:04000000D8EF7DF0C8
:10FB42001F0E3C6E000E3D6E600E3E6E000E3F6E4E
:10FB5200080E406E87EC7FF0A1EF7DF000EF00F021
:10FB6200010000000000000101010000000001018D
:10FB72000101010000010101010101010101010175
:10FB8200800F810F820F830F840F890F8A0F8B0FD3
:10FB92008C0F8D0F920F930F940F950F960F0200FB
:10FBA2001200220032004200520062007200620E15
:10FBB200F66EFB0EF76E000EF86E00EE60F010EEC1
:10FBC20020F00900F5CFEEFFE550E150FAE1820E98
:10FBD200F66EFB0EF76E000EF86E00EE01F010EE00
:10FBE2002EF00900F5CFEEFFE550E150FAE1000EEC
:10FBF200F86E0001A1EF7DF038503910D8B404EF4F
:10FC02007EF006EF7EF037EF7EF038C0D9FF39C0C4
:10FC1200DAFFDF500F0B3A6E050E3A6013EF7EF0FB
:10FC220015EF7EF037EF7EF038C0D9FF39C0DAFF2A
:10FC3200DF380F0B3A6E070E3A6422EF7EF024EFA4
:10FC42007EF026EF7EF037EF7EF038C0D9FF39C064
:10FC5200DAFFDF380F0B2F6E000E306E38C0D9FF7F
:10FC620039C0DAFFDF500F0B23EC7FF0120038505F
:10FC72003910D8B43FEF7EF041EF7EF072EF7EF0A4
:10FC820038C0D9FF39C0DAFFDF500F0B3A6E050ECC
:10FC92003A604EEF7EF050EF7EF072EF7EF038C0A9
:10FCA200D9FF39C0DAFFDF380F0B3A6E070E3A641C
:10FCB2005DEF7EF05FEF7EF061EF7EF072EF7EF03F
:10FCC20038C0D9FF39C0DAFFDF380F0B2F6E010EB3
:10FCD200306E38C0D9FF39C0DAFFDF500F0B23EC8A
:10FCE2007FF0120038503910D8B47AEF7EF07CEFF2
:10FCF2007EF0BEEF7EF038C0D9FF39C0DAFFDF50A8
:10FD02000F0B3A6E050E3A6089EF7EF08BEF7EF0B4
:10FD1200BEEF7EF038C0D9FF39C0DAFFDF380F0BF3
:10FD22003A6E070E3A6498EF7EF09AEF7EF09CEFFF
:10FD32007EF0BEEF7EF038C0D9FF39C0DAFFDF387F
:10FD42000F0B2F6E000E306E38C0D9FF39C0DAFFAC
:10FD5200DF500F0BBFEC7EF038C0D9FF39C0DAFF9D
:10FD6200DF380F0B2F6E000E306E38C0D9FF39C04E
:10FD7200DAFFDF500F0B23EC7FF01200376E080E14
:10FD82002F60C6EF7EF0C8EF7EF022EF7FF00DEF1E
:10FD92007FF02FC031F0010E326E312AD3EF7EF0A8
:10FDA200D8903236312ED1EF7EF03250FF0A336EC8
:10FDB2003750020D150EF324D96E000EF420DA6EC0
:10FDC200DECF34F0DDCF35F034C0D9FF35C0DAFFF5
:10FDD2003350DF1622EF7FF02FC031F0010E326E6A
:10FDE200312AF6EF7EF0D8903236312EF4EF7EF0E3
:10FDF2003750020D150EF324D96E000EF420DA6E80
:10FE0200DECF33F0DDCF34F033C0D9FF34C0DAFFB8
:10FE12003250DF1222EF7FF03050316E326A3250B0
:10FE2200000AD8B417EF7FF022EF7FF03150000ABA
:10FE3200D8B4CAEF7EF0010AD8B4EDEF7EF022EF1B
:10FE42007FF01200376E080E2F602AEF7FF02CEF42
:10FE52007FF086EF7FF071EF7FF02FC031F0010E5F
:10FE6200326E312A37EF7FF0D8903236312E35EFAD
:10FE72007FF03250FF0A336E3750020D0B0EF3241F
:10FE8200D96E000EF420DA6EDECF34F0DDCF35F01D
:10FE920034C0D9FF35C0DAFF3350DF1686EF7FF06A
:10FEA2002FC031F0010E326E312A5AEF7FF0D89016
:10FEB2003236312E58EF7FF03750020D0B0EF324FD
:10FEC200D96E000EF420DA6EDECF33F0DDCF34F0DF
:10FED20033C0D9FF34C0DAFF3250DF1286EF7FF031
:10FEE2003050316E326A3250000AD8B47BEF7FF064
:10FEF20086EF7FF03150000AD8B42EEF7FF0010A6E
:10FF0200D8B451EF7FF086EF7FF01200000E446EFE
:10FF1200000E446E9CEF7FF04450020DF3CF41F08F
:10FF2200F4CF42F041503C24386E42503D20396EAD
:10FF320073EC7EF0442A4050445CD8A0A3EF7FF0DB
:10FF4200A5EF7FF08DEF7FF0000E446EF6EF7FF0AD
:10FF5200000E456E4450080D3EC041F03FC042F0D5
:10FF6200F3504126F450422245504124D96E000EEE
:10FF72004220DA6EDE04D8A4C1EF7FF0C3EF7FF037
:10FF8200D3EF7FF04550020DF3CF41F0F4CF42F0B2
:10FF920041503C24386E42503D20396E38EC7EF0A0
:10FFA200E1EF7FF04550020DF3CF41F0F4CF42F084
:10FFB20041503C24386E42503D20396EFDEC7DF0BC
:10FFC200452A070E4564E8EF7FF0EAEF7FF0ABEFDA
:10FFD2007FF0030E426E8A0E416E560EE82EFED759
:10FFE200412EFCD7422EFAD7442A4050445CD8A076
:0EFFF200FDEF7FF0FFEF7FF0A9EF7FF0120030
:020000040020DA
:08000000FFFFFFFFFFFFFFFF00
:020000040030CA
:0E000000FF021F1EFF8985FF0FC00FE00F409B
:00000001FF
